:0300000002039860
:0C039800787FE4F6D8FD7581200203DFB9
:10030800696E707574202070617373776F72643AC8
:1003180000706C6561736520636F6D6520696E217F
:1003280000636C6F73652074686520646F6F722159
:10033800002A0020796F75206172652074686965EC
:1003480066210020206669727374206572726F726C
:10035800210020207365636F6E64206572726F726E
:10036800210020207468697264206572726F72219E
:1003780021002020476F6F642042796521210020E9
:10038800576169742061206D6F6D656E742120005E
:10061F00081108060404050103010119000108006F
:07062F00011A00C100C10126
:10056100D290C2917FE87E0312057E7FE87E03125E
:0D057100057E7FE87E0312057E7FE87E0395
:10057E00D3EF9400EE940040147D6E7C00ED1D7060
:0D058E00011CED4C70F7EF1F70E61E80E3BE
:01059B00223D
:0505E50090031993FFD3
:1005EA008F80D2A3C2A57F0A7E0012057ED2A57F84
:0905FA000A7E0012057EC2A52252
:0B05C100C290C2917F011205CC7F8028
:1005CC008F80C2A3C2A57F0A7E0012057ED2A57FB2
:0905DC000A7E0012057EC2A52270
:0A06420074092519F8760105192244
:0A064C0074092519F8760205192239
:0A06560074092519F876030519222E
:0A06600074092519F8760405192223
:0A066A0074092519F8760505192218
:0A06740074092519F876060519220D
:0A067E0074092519F8760705192202
:0A06880074092519F87608051922F7
:0A06920074092519F87609051922EC
:0A069C0074092519F8E4F605192287
:10000300E519B40817E4F519120603E4F51C74099D
:10001300251CF8E4F6051CE51CB408F220000302D5
:1000230000AAC2A0C200E4F5081205611205C1E4EA
:10003300F51CE51C1205E57F037E0012057E051CF9
:10004300E51CC3940F40EBE4F51CC2937FC87E000C
:1000530012057ED2937FC87E0012057EC2937FC8AD
:100063007E0012057ED2937FC87E0012057EC29366
:10007300051CE51CC3940240D11205C5E4FBEB90BB
:10008300032993FF1205EA0BBB0FF3D201E51A70A4
:100093000E1201F5B2A07F647E0012057E80EEE4AD
:1000A300F51AC20102050DE4F5190508F51C7409DA
:1000B300251CF8760F051CE51CB408F2E50864015D
:1000C30070581205C5E4F51CE51C90034B93FF1211
:1000D30005EA051CE51CC3940E40ED7FD07E071294
:1000E300057E7F0C1205C7E4F51CE51C90030893FD
:1000F300FF1205EA7F057E0012057E051CE51CC381
:10010300941040E67FC41205CCE4F51C7F2D120544
:10011300EA051CE51CC3940840F2E5086402705824
:100123001205C5E4F51CE51C90035A93FF1205EA7A
:10013300051CE51CC3940F40ED7FD07E0712057E9E
:100143007F0C1205C7E4F51CE51C90030893FF120E
:1001530005EA7F057E0012057E051CE51CC394108D
:1001630040E67FC41205CCE4F51C7F2D1205EA0599
:100173001CE51CC3940840F2E50864037073120580
:10018300C5E4F51CE51C90036A93FF1205EA051C00
:10019300E51CC3940F40ED1205C5E4F51CE51C9066
:1001A300033B93FF1205EA051CE51CC3940F40EDC6
:1001B300E4F51CC2937FF47E0112057ED2937FF493
:1001C3007E0112057E051CE51CC3940A40E5120559
:1001D300C5E4F51CE51C90038793FF1205EA051C93
:1001E300E51CC3941040ED7F107E2712057E120498
:0101F30024E7
:0101F40022E8
:0306A60002042427
:10050D00300103751A0120014AC290D2911205657E
:10051D001205C1E4FBEB90037A93FF1205EA0BBBC6
:10052D000CF3E4FBC2937FC87E0012057ED2937F4D
:10053D00C87E0012057EC2937FC87E0012057ED252
:10054D00937FC87E0012057EC2930BBB04D6C2A05A
:03055D0012042461
:010560002278
:1004A700120561C290C2917F647E0012057E12051B
:1004B700C1E4FBEB1205E50BBB0FF812057AE4FA72
:1004C700C2937FC87E0012057ED2937FC87E00123A
:1004D700057EC2937FC87E0012057ED2937FC87EB9
:1004E7000012057EC2930ABA04D6D2A01205C5E44B
:1004F700FBEB90032993FF1205EA0BBB0FF3E5B063
:06050700B4E7FB0204242E
:10060300E4FFFE74112EF8E6FD74092EF8E6B50535
:0B061300010F0EBE08EDBF0802D20070
:01061E0022B9
:1001F50075B0FEE5B054F0F51B64F0603C7F0A7EF7
:100205000012057EE51B64F0600385B01BE51B2429
:1002150082601B24C0601224E0600924F070121271
:100225000642800D12064C800812065680031206FF
:1002350060E5B054F0FFBFF0F875B0FDE5B054F0DF
:10024500F51B64F0603C7F0A7E0012057EE51B64A9
:10025500F0600385B01BE51B2483601B24C060127E
:1002650024E0600924F0701212066A800D120674EB
:10027500800812067E8003120688E5B054F0FFBFA1
:10028500F0F875B0FBE5B054F0F51B64F0603C7F09
:100295000A7E0012057EE51B64F0600385B01BE550
:1002A5001B2485601B24C0601224E0600924F070C3
:1002B50012120692800D12069C800812000380031C
:1002C5001206A6E5B054F0FFBFF0F875B0F7E5B03B
:1002D50054F0F51B64F0602A7F0A7E0012057EE566
:1002E5001B64F0600385B01BE51B2429600924F01D
:1002F500700812050D80031204A7E5B054F0FFBF86
:02030500F0F80E
:0103070022D3
:10059C007FC41205CCE4FBFAC3EB9519EA94005026
:1005AC00137F2A1205EA7F057E0012057E0BBB0025
:0405BC00010A80E4CC
:0105C0002218
:10042400C293E4F519F508C290C291C2A07F05FEFB
:1004340012057EC2A47F381205CC7F147E001205FB
:100444007E7F0F1205CC7F147E0012057E7F06127C
:1004540005CC7F147E0012057E7F011205CC7F142B
:100464007E0012057EE4FBFA74082BF58274033ACD
:10047400F583E493FF1205EA7F057E0012057E0BE7
:10048400BB00010AEB64104A70DE7FC41205CCE4A1
:10049400FBFA7F2D1205EA0BBB00010AEB64084A44
:0204A40070F0F6
:0104A6002233
:0B0637001204241201F512059C80F84B
:1003A400020637E493A3F8E493A34003F68001F232
:1003B40008DFF48029E493A3F85407240CC8C3335A
:1003C400C4540F4420C8834004F456800146F6DF29
:1003D400E4800B010204081020408090061FE47E94
:1003E400019360BCA3FF543F30E509541FFEE4931E
:1003F400A360010ECF54C025E060A840B8E493A3E5
:10040400FAE493A3F8E493A3C8C582C8CAC583CA0F
:10041400F0A3C8C582C8CAC583CADFE9DEE780BEC7
:0106360000C3
:00000001FF
